:100000000C942A000C9449000C9447000C9447006F
:100010000C9447000C9447000C946E000C9447001D
:100020000C9447000C9447000C9447000C94470034
:100030000C9447000C9447000C9447000C94470024
:100040000C9447000C9447000C9447000C94B400A7
:100050000C94470011241FBECFE5D4E0DEBFCDBF16
:1000600010E0A0E6B0E0E2E6F6E002C005900D92F6
:10007000A836B107D9F720E0A8E6B0E001C01D928C
:10008000A237B207E1F70E940D010C942F030C94E4
:1000900000001F920F920FB60F9211248F939F931F
:1000A000F894849B0AC080916C0090916D00019738
:1000B00090936D0080936C0009C080916C009091CA
:1000C0006D00019690936D0080936C0078949F91E1
:1000D0008F910F900FBE0F901F9018951F920F9247
:1000E0000FB60F921124CF92DF92EF92FF922F93CF
:1000F0003F934F935F936F937F938F939F93AF93B0
:10010000BF93EF93FF936091680070916900C09076
:100110006400D0906500E0906600F0906700072EC4
:10012000000C880B990B0E940702A70196010E9400
:1001300063010E94CF017093690060936800FF9192
:10014000EF91BF91AF919F918F917F916F915F914F
:100150004F913F912F91FF90EF90DF90CF900F90B4
:100160000FBE0F901F9018951F920F920FB60F920F
:100170001124CF92DF92EF92FF922F933F934F93F0
:100180005F936F937F938F939F93AF93BF93EF93FF
:10019000FF93609168007091690080916C0090916C
:1001A0006D00C0906000D0906100E0906200F0901F
:1001B0006300681B790B072E000C880B990B0E94BB
:1001C0000702A70196010E94980260936E00709347
:1001D0006F00809370009093710060916E00709139
:1001E0006F0080917000909171000E94290383BD7F
:1001F000FF91EF91BF91AF919F918F917F916F91FF
:100200005F914F913F912F91FF90EF90DF90CF90B2
:100210000F900FBE0F901F90189580E881BB17BA02
:100220001ABA8FEF84BB85BB8CE685BD8DE083BF9A
:100230008EBD82E189BF8CE990E09BBD8ABD8FE0D5
:100240008CBF83E085BF80E48BBF78947894609105
:100250006E0070916F00809170009091710020E0AD
:1002600030E04BE653E40E949302181664F480E0F9
:1002700090E0ABE6B3E480936E0090936F00A093A0
:100280007000B093710089B38170C82F20E0D22F25
:10029000D0936B00C0936A0080916A0090916B00CC
:1002A0000197A1F613BC15BA84E683BD8FEF90E7E2
:1002B00022E0815090402040E1F700C0000013BCD4
:1002C00013BCFECF5058BB27AA270E947A010C947A
:1002D00059020E944B0238F00E94520220F039F479
:1002E0009F3F19F426F40C9448020EF4E095E7FBC6
:1002F0000C944202E92F0E946A0258F3BA1762076F
:1003000073078407950720F079F4A6F50C948C0206
:100310000EF4E0950B2EBA2FA02D0B01B901900120
:100320000C01CA01A0011124FF27591B99F0593F64
:1003300050F4503E68F11A16F040A22F232F342FAC
:100340004427585FF3CF469537952795A795F040FA
:100350005395C9F77EF41F16BA0B620B730B840B0F
:10036000BAF09150A1F0FF0FBB1F661F771F881FC7
:10037000C2F70EC0BA0F621F731F841F48F487951F
:1003800077956795B795F7959E3F08F0B0CF939511
:10039000880F08F09927EE0F9795879508950E948A
:1003A000D6016894B1110C948D0208950E947202D6
:1003B00088F09F5798F0B92F9927B751B0F0E1F026
:1003C000660F771F881F991F1AF0BA95C9F714C0D6
:1003D000B13091F00E948C02B1E008950C948C022F
:1003E000672F782F8827B85F39F0B93FCCF386950F
:1003F00077956795B395D9F73EF49095809570956C
:1004000061957F4F8F4F9F4F0895E89409C097FBE8
:100410003EF490958095709561957F4F8F4F9F4FDB
:100420009923A9F0F92F96E9BB279395F69587951F
:1004300077956795B795F111F8CFFAF4BB0F11F4E2
:1004400060FF1BC06F5F7F4F8F4F9F4F16C0882389
:1004500011F096E911C0772321F09EE8872F762FBF
:1004600005C0662371F096E8862F70E060E02AF000
:100470009A95660F771F881FDAF7880F96958795EC
:1004800097F9089597F99F6780E870E060E0089514
:100490009FEF80EC089500240A941616170618069C
:1004A0000906089500240A94121613061406050678
:1004B0000895092E0394000C11F4882352F0BB0F09
:1004C00040F4BF2B11F460FF04C06F5F7F4F8F4F6C
:1004D0009F4F089557FD9058440F551F59F05F3FA7
:1004E00071F04795880F97FB991F61F09F3F79F056
:1004F00087950895121613061406551FF2CF4695D8
:10050000F1DF08C0161617061806991FF1CF869559
:100510007105610508940895E894BB27662777273D
:10052000CB0197F908950E94050308F48FEF089511
:100530000E94AB020C9459020E944B0238F00E94B8
:10054000520220F0952311F00C9442020C944802C0
:1005500011240C948D020E946A0270F3959FC1F3DE
:10056000950F50E0551F629FF001729FBB27F00D61
:10057000B11D639FAA27F00DB11DAA1F649F6627B6
:10058000B00DA11D661F829F2227B00DA11D621F05
:10059000739FB00DA11D621F839FA00D611D221FBF
:1005A000749F3327A00D611D231F849F600D211DA3
:1005B000822F762F6A2F11249F5750409AF0F1F026
:1005C00088234AF0EE0FFF1FBB1F661F771F881F8F
:1005D00091505040A9F79E3F510580F00C94420283
:1005E0000C948D025F3FE4F3983ED4F386957795A3
:1005F0006795B795F795E7959F5FC1F7FE2B880F35
:10060000911D9695879597F90895990F0008550FB4
:10061000AA0BE0E8FEEF16161706E807F907C0F088
:1006200012161306E407F50798F0621B730B840B90
:10063000950B39F40A2661F0232B242B252B21F46A
:1006400008950A2609F4A140A6958FEF811D811D0A
:10065000089597FF03C09195819591090895F894A5
:02066000FFCFCA
:080662000000803F0000584237
:00000001FF
